{
  "address": "0x5C006617eC722Ff755387CfB4363F720D40afD70",
  "abi": [
    {
      "inputs": [
        {
          "internalType": "address",
          "name": "_VRFCoordinator",
          "type": "address"
        }
      ],
      "stateMutability": "nonpayable",
      "type": "constructor"
    },
    {
      "anonymous": false,
      "inputs": [
        {
          "indexed": true,
          "internalType": "bytes32",
          "name": "id",
          "type": "bytes32"
        }
      ],
      "name": "ChainlinkCancelled",
      "type": "event"
    },
    {
      "anonymous": false,
      "inputs": [
        {
          "indexed": true,
          "internalType": "bytes32",
          "name": "id",
          "type": "bytes32"
        }
      ],
      "name": "ChainlinkFulfilled",
      "type": "event"
    },
    {
      "anonymous": false,
      "inputs": [
        {
          "indexed": true,
          "internalType": "bytes32",
          "name": "id",
          "type": "bytes32"
        }
      ],
      "name": "ChainlinkRequested",
      "type": "event"
    },
    {
      "inputs": [
        {
          "internalType": "bytes32",
          "name": "_bytes32",
          "type": "bytes32"
        }
      ],
      "name": "bytes32ToString",
      "outputs": [
        {
          "internalType": "string",
          "name": "",
          "type": "string"
        }
      ],
      "stateMutability": "pure",
      "type": "function"
    },
    {
      "inputs": [
        {
          "internalType": "bytes32",
          "name": "_requestId",
          "type": "bytes32"
        },
        {
          "internalType": "bytes32",
          "name": "_volume",
          "type": "bytes32"
        }
      ],
      "name": "fulfill",
      "outputs": [],
      "stateMutability": "nonpayable",
      "type": "function"
    },
    {
      "inputs": [
        {
          "internalType": "string",
          "name": "url",
          "type": "string"
        },
        {
          "internalType": "string",
          "name": "path",
          "type": "string"
        }
      ],
      "name": "requestVolumeData",
      "outputs": [
        {
          "internalType": "bytes32",
          "name": "requestId",
          "type": "bytes32"
        }
      ],
      "stateMutability": "nonpayable",
      "type": "function"
    },
    {
      "inputs": [],
      "name": "volume",
      "outputs": [
        {
          "internalType": "string",
          "name": "",
          "type": "string"
        }
      ],
      "stateMutability": "view",
      "type": "function"
    }
  ],
  "transactionHash": "0x54e0a8f978aecbfb03c18b5968985e26fef0395ab6f73e099d6433ce7cc0d5d5",
  "args": [
    "0xc57b33452b4f7bb189bb5afae9cc4aba1f7a4fd8"
  ],
  "solcInputHash": "d8444c878764d20de3f06c1f5314a2dd",
  "bytecode": "0x608060405260016004553480156200001657600080fd5b5060405162001bd438038062001bd483398181016040528101906200003c9190620001cd565b6200004c620000ca60201b60201c565b80600760006101000a81548173ffffffffffffffffffffffffffffffffffffffff021916908373ffffffffffffffffffffffffffffffffffffffff1602179055507f373430316633313831323731343861383934633030633239326534383666666460088190555067016345785d8a00006009819055505062000252565b6200017073c89bd4e1632d3a43cb03aaad5262cbe4038bc57173ffffffffffffffffffffffffffffffffffffffff166338cc48316040518163ffffffff1660e01b815260040160206040518083038186803b1580156200012957600080fd5b505afa1580156200013e573d6000803e3d6000fd5b505050506040513d601f19601f82011682018060405250810190620001649190620001cd565b6200017260201b60201c565b565b80600260006101000a81548173ffffffffffffffffffffffffffffffffffffffff021916908373ffffffffffffffffffffffffffffffffffffffff16021790555050565b600081519050620001c78162000238565b92915050565b600060208284031215620001e657620001e562000233565b5b6000620001f684828501620001b6565b91505092915050565b60006200020c8262000213565b9050919050565b600073ffffffffffffffffffffffffffffffffffffffff82169050919050565b600080fd5b6200024381620001ff565b81146200024f57600080fd5b50565b61197280620002626000396000f3fe608060405234801561001057600080fd5b506004361061004c5760003560e01c8063042f2b651461005157806321d178c81461006d5780639201de551461009d578063c618a1e4146100cd575b600080fd5b61006b60048036038101906100669190610f2e565b6100eb565b005b61008760048036038101906100829190610f6e565b61021a565b60405161009491906111f7565b60405180910390f35b6100b760048036038101906100b29190610f01565b6102ff565b6040516100c49190611212565b60405180910390f35b6100d561049a565b6040516100e29190611212565b60405180910390f35b816005600082815260200190815260200160002060009054906101000a900473ffffffffffffffffffffffffffffffffffffffff1673ffffffffffffffffffffffffffffffffffffffff163373ffffffffffffffffffffffffffffffffffffffff161461018d576040517f08c379a000000000000000000000000000000000000000000000000000000000815260040161018490611254565b60405180910390fd5b6005600082815260200190815260200160002060006101000a81549073ffffffffffffffffffffffffffffffffffffffff0219169055807f7cc135e0cebb02c3480ae5d74d377283180a2601f8f644edf7987b009316c63a60405160405180910390a260006101fb836102ff565b90508060069080519060200190610213929190610d10565b5050505050565b6000806102316008543063042f2b6560e01b610528565b905061027d6040518060400160405280600381526020017f676574000000000000000000000000000000000000000000000000000000000081525085836105599092919063ffffffff16565b6102c76040518060400160405280600481526020017f706174680000000000000000000000000000000000000000000000000000000081525084836105599092919063ffffffff16565b6102f6600760009054906101000a900473ffffffffffffffffffffffffffffffffffffffff168260095461058c565b91505092915050565b606060005b60208160ff161080156103565750600060f81b838260ff166020811061032d5761032c6117d3565b5b1a60f81b7effffffffffffffffffffffffffffffffffffffffffffffffffffffffffffff191614155b1561036e578080610366906116bd565b915050610304565b60008160ff1667ffffffffffffffff81111561038d5761038c611802565b5b6040519080825280601f01601f1916602001820160405280156103bf5781602001600182028036833780820191505090505b509050600091505b60208260ff161080156104195750600060f81b848360ff16602081106103f0576103ef6117d3565b5b1a60f81b7effffffffffffffffffffffffffffffffffffffffffffffffffffffffffffff191614155b1561049057838260ff1660208110610434576104336117d3565b5b1a60f81b818360ff168151811061044e5761044d6117d3565b5b60200101907effffffffffffffffffffffffffffffffffffffffffffffffffffffffffffff1916908160001a9053508180610488906116bd565b9250506103c7565b8092505050919050565b600680546104a79061165a565b80601f01602080910402602001604051908101604052809291908181526020018280546104d39061165a565b80156105205780601f106104f557610100808354040283529160200191610520565b820191906000526020600020905b81548152906001019060200180831161050357829003601f168201915b505050505081565b610530610d96565b610538610d96565b61054f858585846105ac909392919063ffffffff16565b9150509392505050565b61057082846080015161065c90919063ffffffff16565b61058781846080015161065c90919063ffffffff16565b505050565b60006105a38484846001634042994660e01b610681565b90509392505050565b6105b4610d96565b6105c485608001516101006108e9565b508385600001818152505082856020019073ffffffffffffffffffffffffffffffffffffffff16908173ffffffffffffffffffffffffffffffffffffffff16815250508185604001907bffffffffffffffffffffffffffffffffffffffffffffffffffffffff191690817bffffffffffffffffffffffffffffffffffffffffffffffffffffffff191681525050849050949350505050565b6106698260038351610953565b61067c8183610a9890919063ffffffff16565b505050565b600030600454604051602001610698929190611108565b604051602081830303815290604052805190602001209050600454856060018181525050856005600083815260200190815260200160002060006101000a81548173ffffffffffffffffffffffffffffffffffffffff021916908373ffffffffffffffffffffffffffffffffffffffff160217905550807fb5e6e01e79f91267dc17b4e6314d5d4d03593d2ceee0fbb452b750bd70ea5af960405160405180910390a2600082600080886000015189602001518a604001518b606001518a8d6080015160000151604051602401610776989796959493929190611134565b604051602081830303815290604052907bffffffffffffffffffffffffffffffffffffffffffffffffffffffff19166020820180517bffffffffffffffffffffffffffffffffffffffffffffffffffffffff83818316178352505050509050600260009054906101000a900473ffffffffffffffffffffffffffffffffffffffff1673ffffffffffffffffffffffffffffffffffffffff16634000aea08887846040518463ffffffff1660e01b8152600401610834939291906111b9565b602060405180830381600087803b15801561084e57600080fd5b505af1158015610862573d6000803e3d6000fd5b505050506040513d601f19601f820116820180604052508101906108869190610ed4565b6108c5576040517f08c379a00000000000000000000000000000000000000000000000000000000081526004016108bc90611234565b60405180910390fd5b6001600460008282546108d89190611302565b925050819055505095945050505050565b6108f1610e03565b60006020836109009190611715565b1461092c576020826109129190611715565b602061091e9190611523565b826109299190611302565b91505b81836020018181525050604051808452600081528281016020016040525082905092915050565b601781116109805761097a8160058460ff16901b60ff161784610aba90919063ffffffff16565b50610a93565b60ff81116109c2576109a5601860058460ff16901b1784610aba90919063ffffffff16565b506109bc81600185610ada9092919063ffffffff16565b50610a92565b61ffff8111610a05576109e8601960058460ff16901b1784610aba90919063ffffffff16565b506109ff81600285610ada9092919063ffffffff16565b50610a91565b63ffffffff8111610a4a57610a2d601a60058460ff16901b1784610aba90919063ffffffff16565b50610a4481600485610ada9092919063ffffffff16565b50610a90565b67ffffffffffffffff8111610a8f57610a76601b60058460ff16901b1784610aba90919063ffffffff16565b50610a8d81600885610ada9092919063ffffffff16565b505b5b5b5b5b505050565b610aa0610e03565b610ab283846000015151848551610afc565b905092915050565b610ac2610e03565b610ad28384600001515184610beb565b905092915050565b610ae2610e03565b610af3848560000151518585610c42565b90509392505050565b610b04610e03565b8251821115610b1257600080fd5b84602001518285610b239190611302565b1115610b5857610b57856002610b4888602001518887610b439190611302565b610cd0565b610b5291906114c9565b610cec565b5b600080865180518760208301019350808887011115610b775787860182525b60208701925050505b60208410610bbe5780518252602082610b999190611302565b9150602081610ba89190611302565b9050602084610bb79190611523565b9350610b80565b60006001856020036101000a03905080198251168184511681811785525050508692505050949350505050565b610bf3610e03565b83602001518310610c1957610c188460028660200151610c1391906114c9565b610cec565b5b8351805160208583010184815381861415610c35576001820183525b5050508390509392505050565b610c4a610e03565b84602001518483610c5b9190611302565b1115610c8357610c828560028685610c739190611302565b610c7d91906114c9565b610cec565b5b6000600183610100610c9591906113ab565b610c9f9190611523565b90508551838682010185831982511617815281518588011115610cc25784870182525b505085915050949350505050565b600081831115610ce257829050610ce6565b8190505b92915050565b600082600001519050610cff83836108e9565b50610d0a8382610a98565b50505050565b828054610d1c9061165a565b90600052602060002090601f016020900481019282610d3e5760008555610d85565b82601f10610d5757805160ff1916838001178555610d85565b82800160010185558215610d85579182015b82811115610d84578251825591602001919060010190610d69565b5b509050610d929190610e1d565b5090565b6040518060a0016040528060008019168152602001600073ffffffffffffffffffffffffffffffffffffffff16815260200160007bffffffffffffffffffffffffffffffffffffffffffffffffffffffff1916815260200160008152602001610dfd610e03565b81525090565b604051806040016040528060608152602001600081525090565b5b80821115610e36576000816000905550600101610e1e565b5090565b6000610e4d610e4884611299565b611274565b905082815260208101848484011115610e6957610e68611836565b5b610e74848285611618565b509392505050565b600081519050610e8b8161190e565b92915050565b600081359050610ea081611925565b92915050565b600082601f830112610ebb57610eba611831565b5b8135610ecb848260208601610e3a565b91505092915050565b600060208284031215610eea57610ee9611840565b5b6000610ef884828501610e7c565b91505092915050565b600060208284031215610f1757610f16611840565b5b6000610f2584828501610e91565b91505092915050565b60008060408385031215610f4557610f44611840565b5b6000610f5385828601610e91565b9250506020610f6485828601610e91565b9150509250929050565b60008060408385031215610f8557610f84611840565b5b600083013567ffffffffffffffff811115610fa357610fa261183b565b5b610faf85828601610ea6565b925050602083013567ffffffffffffffff811115610fd057610fcf61183b565b5b610fdc85828601610ea6565b9150509250929050565b610fef81611557565b82525050565b610ffe81611575565b82525050565b61100d8161157f565b82525050565b600061101e826112ca565b61102881856112e0565b9350611038818560208601611627565b61104181611845565b840191505092915050565b61105d611058826115e2565b6116e7565b82525050565b600061106e826112d5565b61107881856112f1565b9350611088818560208601611627565b61109181611845565b840191505092915050565b60006110a96023836112f1565b91506110b482611870565b604082019050919050565b60006110cc6028836112f1565b91506110d7826118bf565b604082019050919050565b6110eb816115cb565b82525050565b6111026110fd826115cb565b61170b565b82525050565b6000611114828561104c565b60148201915061112482846110f1565b6020820191508190509392505050565b60006101008201905061114a600083018b610fe6565b611157602083018a6110e2565b6111646040830189610ff5565b6111716060830188610fe6565b61117e6080830187611004565b61118b60a08301866110e2565b61119860c08301856110e2565b81810360e08301526111aa8184611013565b90509998505050505050505050565b60006060820190506111ce6000830186610fe6565b6111db60208301856110e2565b81810360408301526111ed8184611013565b9050949350505050565b600060208201905061120c6000830184610ff5565b92915050565b6000602082019050818103600083015261122c8184611063565b905092915050565b6000602082019050818103600083015261124d8161109c565b9050919050565b6000602082019050818103600083015261126d816110bf565b9050919050565b600061127e61128f565b905061128a828261168c565b919050565b6000604051905090565b600067ffffffffffffffff8211156112b4576112b3611802565b5b6112bd82611845565b9050602081019050919050565b600081519050919050565b600081519050919050565b600082825260208201905092915050565b600082825260208201905092915050565b600061130d826115cb565b9150611318836115cb565b9250827fffffffffffffffffffffffffffffffffffffffffffffffffffffffffffffffff0382111561134d5761134c611746565b5b828201905092915050565b6000808291508390505b60018511156113a25780860481111561137e5761137d611746565b5b600185161561138d5780820291505b808102905061139b85611863565b9450611362565b94509492505050565b60006113b6826115cb565b91506113c1836115cb565b92506113ee7fffffffffffffffffffffffffffffffffffffffffffffffffffffffffffffffff84846113f6565b905092915050565b60008261140657600190506114c2565b8161141457600090506114c2565b816001811461142a576002811461143457611463565b60019150506114c2565b60ff84111561144657611445611746565b5b8360020a91508482111561145d5761145c611746565b5b506114c2565b5060208310610133831016604e8410600b84101617156114985782820a90508381111561149357611492611746565b5b6114c2565b6114a58484846001611358565b925090508184048111156114bc576114bb611746565b5b81810290505b9392505050565b60006114d4826115cb565b91506114df836115cb565b9250817fffffffffffffffffffffffffffffffffffffffffffffffffffffffffffffffff048311821515161561151857611517611746565b5b828202905092915050565b600061152e826115cb565b9150611539836115cb565b92508282101561154c5761154b611746565b5b828203905092915050565b6000611562826115ab565b9050919050565b60008115159050919050565b6000819050919050565b60007fffffffff0000000000000000000000000000000000000000000000000000000082169050919050565b600073ffffffffffffffffffffffffffffffffffffffff82169050919050565b6000819050919050565b600060ff82169050919050565b60006115ed826115f4565b9050919050565b60006115ff82611606565b9050919050565b6000611611826115ab565b9050919050565b82818337600083830152505050565b60005b8381101561164557808201518184015260208101905061162a565b83811115611654576000848401525b50505050565b6000600282049050600182168061167257607f821691505b60208210811415611686576116856117a4565b5b50919050565b61169582611845565b810181811067ffffffffffffffff821117156116b4576116b3611802565b5b80604052505050565b60006116c8826115d5565b915060ff8214156116dc576116db611746565b5b600182019050919050565b60006116f2826116f9565b9050919050565b600061170482611856565b9050919050565b6000819050919050565b6000611720826115cb565b915061172b836115cb565b92508261173b5761173a611775565b5b828206905092915050565b7f4e487b7100000000000000000000000000000000000000000000000000000000600052601160045260246000fd5b7f4e487b7100000000000000000000000000000000000000000000000000000000600052601260045260246000fd5b7f4e487b7100000000000000000000000000000000000000000000000000000000600052602260045260246000fd5b7f4e487b7100000000000000000000000000000000000000000000000000000000600052603260045260246000fd5b7f4e487b7100000000000000000000000000000000000000000000000000000000600052604160045260246000fd5b600080fd5b600080fd5b600080fd5b600080fd5b6000601f19601f8301169050919050565b60008160601b9050919050565b60008160011c9050919050565b7f756e61626c6520746f207472616e73666572416e6443616c6c20746f206f726160008201527f636c650000000000000000000000000000000000000000000000000000000000602082015250565b7f536f75726365206d75737420626520746865206f7261636c65206f662074686560008201527f2072657175657374000000000000000000000000000000000000000000000000602082015250565b61191781611569565b811461192257600080fd5b50565b61192e81611575565b811461193957600080fd5b5056fea2646970667358221220e88da1fede85e43f08c4ecf27513a361468087f30b24e2d677d79422e86508bf64736f6c63430008070033",
  "devdoc": {
    "kind": "dev",
    "methods": {},
    "version": 1
  },
  "userdoc": {
    "kind": "user",
    "methods": {
      "constructor": {
        "notice": "Network: Kovan Oracle: 0xc57B33452b4F7BB189bB5AfaE9cc4aBa1f7a4FD8 (Chainlink Devrel    Node) Job ID: d5270d1c311941d0b08bead21fea7747 Fee: 0.1 LINK"
      },
      "fulfill(bytes32,bytes32)": {
        "notice": "Receive the response in the form of uint256"
      },
      "requestVolumeData(string,string)": {
        "notice": "Create a Chainlink request to retrieve API response, find the target data, then multiply by 1000000000000000000 (to remove decimal places from data)."
      }
    },
    "notice": "THIS IS AN EXAMPLE CONTRACT WHICH USES HARDCODED VALUES FOR CLARITY. PLEASE DO NOT USE THIS CODE IN PRODUCTION.",
    "version": 1
  },
  "storageLayout": {
    "storage": [
      {
        "astId": 318,
        "contract": "contracts/APIConsumer.sol:APIConsumer",
        "label": "ens",
        "offset": 0,
        "slot": "0",
        "type": "t_contract(ENSInterface)912"
      },
      {
        "astId": 320,
        "contract": "contracts/APIConsumer.sol:APIConsumer",
        "label": "ensNode",
        "offset": 0,
        "slot": "1",
        "type": "t_bytes32"
      },
      {
        "astId": 323,
        "contract": "contracts/APIConsumer.sol:APIConsumer",
        "label": "link",
        "offset": 0,
        "slot": "2",
        "type": "t_contract(LinkTokenInterface)1007"
      },
      {
        "astId": 326,
        "contract": "contracts/APIConsumer.sol:APIConsumer",
        "label": "oracle",
        "offset": 0,
        "slot": "3",
        "type": "t_contract(OperatorInterface)1089"
      },
      {
        "astId": 329,
        "contract": "contracts/APIConsumer.sol:APIConsumer",
        "label": "requestCount",
        "offset": 0,
        "slot": "4",
        "type": "t_uint256"
      },
      {
        "astId": 333,
        "contract": "contracts/APIConsumer.sol:APIConsumer",
        "label": "pendingRequests",
        "offset": 0,
        "slot": "5",
        "type": "t_mapping(t_bytes32,t_address)"
      },
      {
        "astId": 2105,
        "contract": "contracts/APIConsumer.sol:APIConsumer",
        "label": "volume",
        "offset": 0,
        "slot": "6",
        "type": "t_string_storage"
      },
      {
        "astId": 2107,
        "contract": "contracts/APIConsumer.sol:APIConsumer",
        "label": "oracle",
        "offset": 0,
        "slot": "7",
        "type": "t_address"
      },
      {
        "astId": 2109,
        "contract": "contracts/APIConsumer.sol:APIConsumer",
        "label": "jobId",
        "offset": 0,
        "slot": "8",
        "type": "t_bytes32"
      },
      {
        "astId": 2111,
        "contract": "contracts/APIConsumer.sol:APIConsumer",
        "label": "fee",
        "offset": 0,
        "slot": "9",
        "type": "t_uint256"
      }
    ],
    "types": {
      "t_address": {
        "encoding": "inplace",
        "label": "address",
        "numberOfBytes": "20"
      },
      "t_bytes32": {
        "encoding": "inplace",
        "label": "bytes32",
        "numberOfBytes": "32"
      },
      "t_contract(ENSInterface)912": {
        "encoding": "inplace",
        "label": "contract ENSInterface",
        "numberOfBytes": "20"
      },
      "t_contract(LinkTokenInterface)1007": {
        "encoding": "inplace",
        "label": "contract LinkTokenInterface",
        "numberOfBytes": "20"
      },
      "t_contract(OperatorInterface)1089": {
        "encoding": "inplace",
        "label": "contract OperatorInterface",
        "numberOfBytes": "20"
      },
      "t_mapping(t_bytes32,t_address)": {
        "encoding": "mapping",
        "key": "t_bytes32",
        "label": "mapping(bytes32 => address)",
        "numberOfBytes": "32",
        "value": "t_address"
      },
      "t_string_storage": {
        "encoding": "bytes",
        "label": "string",
        "numberOfBytes": "32"
      },
      "t_uint256": {
        "encoding": "inplace",
        "label": "uint256",
        "numberOfBytes": "32"
      }
    }
  }
}