{
  "address": "0xBed46e9C277F71419E02A23Bb795Deda5E876B17",
  "abi": [
    {
      "inputs": [
        {
          "internalType": "address",
          "name": "_VRFCoordinator",
          "type": "address"
        },
        {
          "internalType": "address",
          "name": "_LinkToken",
          "type": "address"
        },
        {
          "internalType": "bytes32",
          "name": "_keyhash",
          "type": "bytes32"
        },
        {
          "internalType": "address",
          "name": "marketplace",
          "type": "address"
        }
      ],
      "stateMutability": "nonpayable",
      "type": "constructor"
    },
    {
      "anonymous": false,
      "inputs": [
        {
          "indexed": true,
          "internalType": "address",
          "name": "owner",
          "type": "address"
        },
        {
          "indexed": true,
          "internalType": "address",
          "name": "approved",
          "type": "address"
        },
        {
          "indexed": true,
          "internalType": "uint256",
          "name": "tokenId",
          "type": "uint256"
        }
      ],
      "name": "Approval",
      "type": "event"
    },
    {
      "anonymous": false,
      "inputs": [
        {
          "indexed": true,
          "internalType": "address",
          "name": "owner",
          "type": "address"
        },
        {
          "indexed": true,
          "internalType": "address",
          "name": "operator",
          "type": "address"
        },
        {
          "indexed": false,
          "internalType": "bool",
          "name": "approved",
          "type": "bool"
        }
      ],
      "name": "ApprovalForAll",
      "type": "event"
    },
    {
      "anonymous": false,
      "inputs": [
        {
          "indexed": true,
          "internalType": "uint256",
          "name": "cmId",
          "type": "uint256"
        },
        {
          "indexed": false,
          "internalType": "string",
          "name": "name",
          "type": "string"
        }
      ],
      "name": "CryptoMarcCreated",
      "type": "event"
    },
    {
      "anonymous": false,
      "inputs": [
        {
          "indexed": true,
          "internalType": "address",
          "name": "previousOwner",
          "type": "address"
        },
        {
          "indexed": true,
          "internalType": "address",
          "name": "newOwner",
          "type": "address"
        }
      ],
      "name": "OwnershipTransferred",
      "type": "event"
    },
    {
      "anonymous": false,
      "inputs": [
        {
          "indexed": true,
          "internalType": "address",
          "name": "from",
          "type": "address"
        },
        {
          "indexed": true,
          "internalType": "address",
          "name": "to",
          "type": "address"
        },
        {
          "indexed": true,
          "internalType": "uint256",
          "name": "tokenId",
          "type": "uint256"
        }
      ],
      "name": "Transfer",
      "type": "event"
    },
    {
      "inputs": [],
      "name": "LinkToken",
      "outputs": [
        {
          "internalType": "address",
          "name": "",
          "type": "address"
        }
      ],
      "stateMutability": "view",
      "type": "function"
    },
    {
      "inputs": [],
      "name": "VRFCoordinator",
      "outputs": [
        {
          "internalType": "address",
          "name": "",
          "type": "address"
        }
      ],
      "stateMutability": "view",
      "type": "function"
    },
    {
      "inputs": [
        {
          "internalType": "address",
          "name": "to",
          "type": "address"
        },
        {
          "internalType": "uint256",
          "name": "tokenId",
          "type": "uint256"
        }
      ],
      "name": "approve",
      "outputs": [],
      "stateMutability": "nonpayable",
      "type": "function"
    },
    {
      "inputs": [
        {
          "internalType": "uint256",
          "name": "",
          "type": "uint256"
        }
      ],
      "name": "attributes",
      "outputs": [
        {
          "internalType": "uint256",
          "name": "background",
          "type": "uint256"
        },
        {
          "internalType": "uint256",
          "name": "face",
          "type": "uint256"
        },
        {
          "internalType": "uint256",
          "name": "mouth",
          "type": "uint256"
        },
        {
          "internalType": "uint256",
          "name": "eyes",
          "type": "uint256"
        },
        {
          "internalType": "uint256",
          "name": "hair",
          "type": "uint256"
        },
        {
          "internalType": "uint256",
          "name": "glasses",
          "type": "uint256"
        },
        {
          "internalType": "uint256",
          "name": "hat",
          "type": "uint256"
        }
      ],
      "stateMutability": "view",
      "type": "function"
    },
    {
      "inputs": [
        {
          "internalType": "address",
          "name": "owner",
          "type": "address"
        }
      ],
      "name": "balanceOf",
      "outputs": [
        {
          "internalType": "uint256",
          "name": "",
          "type": "uint256"
        }
      ],
      "stateMutability": "view",
      "type": "function"
    },
    {
      "inputs": [
        {
          "internalType": "uint256",
          "name": "",
          "type": "uint256"
        }
      ],
      "name": "competences",
      "outputs": [
        {
          "internalType": "uint256",
          "name": "competence1",
          "type": "uint256"
        },
        {
          "internalType": "uint256",
          "name": "competence2",
          "type": "uint256"
        },
        {
          "internalType": "uint256",
          "name": "competence3",
          "type": "uint256"
        }
      ],
      "stateMutability": "view",
      "type": "function"
    },
    {
      "inputs": [
        {
          "internalType": "uint256",
          "name": "",
          "type": "uint256"
        }
      ],
      "name": "cryptomarcs",
      "outputs": [
        {
          "internalType": "uint256",
          "name": "id",
          "type": "uint256"
        },
        {
          "internalType": "string",
          "name": "name",
          "type": "string"
        }
      ],
      "stateMutability": "view",
      "type": "function"
    },
    {
      "inputs": [
        {
          "internalType": "uint256",
          "name": "randomValue",
          "type": "uint256"
        },
        {
          "internalType": "uint256",
          "name": "n",
          "type": "uint256"
        }
      ],
      "name": "expand",
      "outputs": [
        {
          "internalType": "uint256[]",
          "name": "expandedValues",
          "type": "uint256[]"
        }
      ],
      "stateMutability": "pure",
      "type": "function"
    },
    {
      "inputs": [
        {
          "internalType": "uint256",
          "name": "tokenId",
          "type": "uint256"
        }
      ],
      "name": "getApproved",
      "outputs": [
        {
          "internalType": "address",
          "name": "",
          "type": "address"
        }
      ],
      "stateMutability": "view",
      "type": "function"
    },
    {
      "inputs": [],
      "name": "getLastTokenId",
      "outputs": [
        {
          "internalType": "uint256",
          "name": "",
          "type": "uint256"
        }
      ],
      "stateMutability": "view",
      "type": "function"
    },
    {
      "inputs": [],
      "name": "getNumberOfCryptoMarcs",
      "outputs": [
        {
          "internalType": "uint256",
          "name": "",
          "type": "uint256"
        }
      ],
      "stateMutability": "view",
      "type": "function"
    },
    {
      "inputs": [
        {
          "internalType": "address",
          "name": "owner",
          "type": "address"
        },
        {
          "internalType": "address",
          "name": "operator",
          "type": "address"
        }
      ],
      "name": "isApprovedForAll",
      "outputs": [
        {
          "internalType": "bool",
          "name": "",
          "type": "bool"
        }
      ],
      "stateMutability": "view",
      "type": "function"
    },
    {
      "inputs": [],
      "name": "name",
      "outputs": [
        {
          "internalType": "string",
          "name": "",
          "type": "string"
        }
      ],
      "stateMutability": "view",
      "type": "function"
    },
    {
      "inputs": [],
      "name": "owner",
      "outputs": [
        {
          "internalType": "address",
          "name": "",
          "type": "address"
        }
      ],
      "stateMutability": "view",
      "type": "function"
    },
    {
      "inputs": [
        {
          "internalType": "uint256",
          "name": "tokenId",
          "type": "uint256"
        }
      ],
      "name": "ownerOf",
      "outputs": [
        {
          "internalType": "address",
          "name": "",
          "type": "address"
        }
      ],
      "stateMutability": "view",
      "type": "function"
    },
    {
      "inputs": [],
      "name": "randomResult",
      "outputs": [
        {
          "internalType": "uint256",
          "name": "",
          "type": "uint256"
        }
      ],
      "stateMutability": "view",
      "type": "function"
    },
    {
      "inputs": [
        {
          "internalType": "bytes32",
          "name": "requestId",
          "type": "bytes32"
        },
        {
          "internalType": "uint256",
          "name": "randomness",
          "type": "uint256"
        }
      ],
      "name": "rawFulfillRandomness",
      "outputs": [],
      "stateMutability": "nonpayable",
      "type": "function"
    },
    {
      "inputs": [],
      "name": "renounceOwnership",
      "outputs": [],
      "stateMutability": "nonpayable",
      "type": "function"
    },
    {
      "inputs": [
        {
          "internalType": "string",
          "name": "name",
          "type": "string"
        }
      ],
      "name": "requestNewRandomCryptoMarc",
      "outputs": [
        {
          "internalType": "bytes32",
          "name": "",
          "type": "bytes32"
        }
      ],
      "stateMutability": "nonpayable",
      "type": "function"
    },
    {
      "inputs": [
        {
          "internalType": "address",
          "name": "from",
          "type": "address"
        },
        {
          "internalType": "address",
          "name": "to",
          "type": "address"
        },
        {
          "internalType": "uint256",
          "name": "tokenId",
          "type": "uint256"
        }
      ],
      "name": "safeTransferFrom",
      "outputs": [],
      "stateMutability": "nonpayable",
      "type": "function"
    },
    {
      "inputs": [
        {
          "internalType": "address",
          "name": "from",
          "type": "address"
        },
        {
          "internalType": "address",
          "name": "to",
          "type": "address"
        },
        {
          "internalType": "uint256",
          "name": "tokenId",
          "type": "uint256"
        },
        {
          "internalType": "bytes",
          "name": "_data",
          "type": "bytes"
        }
      ],
      "name": "safeTransferFrom",
      "outputs": [],
      "stateMutability": "nonpayable",
      "type": "function"
    },
    {
      "inputs": [
        {
          "internalType": "address",
          "name": "operator",
          "type": "address"
        },
        {
          "internalType": "bool",
          "name": "approved",
          "type": "bool"
        }
      ],
      "name": "setApprovalForAll",
      "outputs": [],
      "stateMutability": "nonpayable",
      "type": "function"
    },
    {
      "inputs": [
        {
          "internalType": "uint256",
          "name": "tId",
          "type": "uint256"
        },
        {
          "internalType": "string",
          "name": "tUri",
          "type": "string"
        }
      ],
      "name": "setTheURI",
      "outputs": [],
      "stateMutability": "nonpayable",
      "type": "function"
    },
    {
      "inputs": [
        {
          "internalType": "bytes4",
          "name": "interfaceId",
          "type": "bytes4"
        }
      ],
      "name": "supportsInterface",
      "outputs": [
        {
          "internalType": "bool",
          "name": "",
          "type": "bool"
        }
      ],
      "stateMutability": "view",
      "type": "function"
    },
    {
      "inputs": [],
      "name": "symbol",
      "outputs": [
        {
          "internalType": "string",
          "name": "",
          "type": "string"
        }
      ],
      "stateMutability": "view",
      "type": "function"
    },
    {
      "inputs": [
        {
          "internalType": "uint256",
          "name": "tokenId",
          "type": "uint256"
        }
      ],
      "name": "tokenURI",
      "outputs": [
        {
          "internalType": "string",
          "name": "",
          "type": "string"
        }
      ],
      "stateMutability": "view",
      "type": "function"
    },
    {
      "inputs": [
        {
          "internalType": "address",
          "name": "from",
          "type": "address"
        },
        {
          "internalType": "address",
          "name": "to",
          "type": "address"
        },
        {
          "internalType": "uint256",
          "name": "tokenId",
          "type": "uint256"
        }
      ],
      "name": "transferFrom",
      "outputs": [],
      "stateMutability": "nonpayable",
      "type": "function"
    },
    {
      "inputs": [
        {
          "internalType": "address",
          "name": "newOwner",
          "type": "address"
        }
      ],
      "name": "transferOwnership",
      "outputs": [],
      "stateMutability": "nonpayable",
      "type": "function"
    }
  ],
  "transactionHash": "0x63161c885008d2d5092de86d7a50a9a0026bd1da0f108f19899a4dde707cfb2b",
  "args": [
    "0xdD3782915140c8f3b190B5D67eAc6dc5760C46E9",
    "0xa36085F69e2889c224210F603D836748e7dC0088",
    "0x6c3699283bda56ad74f6b855546325b68d482e983852a7a82979cc4807b641f4",
    "0x645C9DACC1b8c60eE9F60Af5F28253309439D746"
  ],
  "solcInputHash": "76a7db6df25f1b4904e6d0ccc9881738",
  "bytecode": "0x60c06040523480156200001157600080fd5b50604051620048ed380380620048ed8339818101604052810190620000379190620003f8565b83836040518060400160405280600a81526020017f43727970746f4d617263000000000000000000000000000000000000000000008152506040518060400160405280600481526020017f4d415243000000000000000000000000000000000000000000000000000000008152508160009080519060200190620000bd9291906200031a565b508060019080519060200190620000d69291906200031a565b5050508173ffffffffffffffffffffffffffffffffffffffff1660a08173ffffffffffffffffffffffffffffffffffffffff1660601b815250508073ffffffffffffffffffffffffffffffffffffffff1660808173ffffffffffffffffffffffffffffffffffffffff1660601b815250505050620001696200015d6200024c60201b60201c565b6200025460201b60201c565b83600e60006101000a81548173ffffffffffffffffffffffffffffffffffffffff021916908373ffffffffffffffffffffffffffffffffffffffff16021790555082600f60006101000a81548173ffffffffffffffffffffffffffffffffffffffff021916908373ffffffffffffffffffffffffffffffffffffffff16021790555081600b8190555067016345785d8a0000600c8190555080600a60006101000a81548173ffffffffffffffffffffffffffffffffffffffff021916908373ffffffffffffffffffffffffffffffffffffffff1602179055505050505062000546565b600033905090565b6000600860009054906101000a900473ffffffffffffffffffffffffffffffffffffffff16905081600860006101000a81548173ffffffffffffffffffffffffffffffffffffffff021916908373ffffffffffffffffffffffffffffffffffffffff1602179055508173ffffffffffffffffffffffffffffffffffffffff168173ffffffffffffffffffffffffffffffffffffffff167f8be0079c531659141344cd1fd0a4f28419497f9722a3daafe3b4186f6b6457e060405160405180910390a35050565b8280546200032890620004a8565b90600052602060002090601f0160209004810192826200034c576000855562000398565b82601f106200036757805160ff191683800117855562000398565b8280016001018555821562000398579182015b82811115620003975782518255916020019190600101906200037a565b5b509050620003a79190620003ab565b5090565b5b80821115620003c6576000816000905550600101620003ac565b5090565b600081519050620003db8162000512565b92915050565b600081519050620003f2816200052c565b92915050565b600080600080608085870312156200041557620004146200050d565b5b60006200042587828801620003ca565b94505060206200043887828801620003ca565b93505060406200044b87828801620003e1565b92505060606200045e87828801620003ca565b91505092959194509250565b6000620004778262000488565b9050919050565b6000819050919050565b600073ffffffffffffffffffffffffffffffffffffffff82169050919050565b60006002820490506001821680620004c157607f821691505b60208210811415620004d857620004d7620004de565b5b50919050565b7f4e487b7100000000000000000000000000000000000000000000000000000000600052602260045260246000fd5b600080fd5b6200051d816200046a565b81146200052957600080fd5b50565b62000537816200047e565b81146200054357600080fd5b50565b60805160601c60a05160601c61436d6200058060003960008181610ed90152611a500152600081816109800152611a14015261436d6000f3fe608060405234801561001057600080fd5b50600436106101c45760003560e01c806383c4c00d116100f9578063b88d4fde11610097578063e985e9c511610071578063e985e9c514610520578063f2fde38b14610550578063f41626b11461056c578063fdafff1b1461059e576101c4565b8063b88d4fde1461049e578063c87b56dd146104ba578063d05dcc6a146104ea576101c4565b80638da5cb5b116100d35780638da5cb5b1461042a57806394985ddd1461044857806395d89b4114610464578063a22cb46514610482576101c4565b806383c4c00d146103c057806387209d89146103de578063874b3afc146103fa576101c4565b806342842e0e116101665780636352211e116101405780636352211e14610325578063673a76a31461035557806370a0823114610386578063715018a6146103b6576101c4565b806342842e0e146102bb5780634adb0f61146102d75780634f8e2fdf14610307576101c4565b8063095ea7b3116101a2578063095ea7b31461024757806323b872dd1461026357806333b608631461027f57806342619f661461029d576101c4565b806301ffc9a7146101c957806306fdde03146101f9578063081812fc14610217575b600080fd5b6101e360048036038101906101de9190612cc2565b6105bc565b6040516101f09190613440565b60405180910390f35b61020161069e565b60405161020e91906134e4565b60405180910390f35b610231600480360381019061022c9190612d65565b610730565b60405161023e9190613379565b60405180910390f35b610261600480360381019061025c9190612c15565b6107b5565b005b61027d60048036038101906102789190612aff565b6108cd565b005b61028761092d565b6040516102949190613379565b60405180910390f35b6102a5610953565b6040516102b291906137a8565b60405180910390f35b6102d560048036038101906102d09190612aff565b610959565b005b6102f160048036038101906102ec9190612d1c565b610979565b6040516102fe919061345b565b60405180910390f35b61030f610afd565b60405161031c9190613379565b60405180910390f35b61033f600480360381019061033a9190612d65565b610b23565b60405161034c9190613379565b60405180910390f35b61036f600480360381019061036a9190612d65565b610bd5565b60405161037d9291906137c3565b60405180910390f35b6103a0600480360381019061039b9190612a92565b610c91565b6040516103ad91906137a8565b60405180910390f35b6103be610d49565b005b6103c8610dd1565b6040516103d591906137a8565b60405180910390f35b6103f860048036038101906103f39190612dbf565b610de2565b005b610414600480360381019061040f9190612e1b565b610df0565b604051610421919061341e565b60405180910390f35b610432610ead565b60405161043f9190613379565b60405180910390f35b610462600480360381019061045d9190612c82565b610ed7565b005b61046c610f73565b60405161047991906134e4565b60405180910390f35b61049c60048036038101906104979190612bd5565b611005565b005b6104b860048036038101906104b39190612b52565b611186565b005b6104d460048036038101906104cf9190612d65565b6111e8565b6040516104e191906134e4565b60405180910390f35b61050460048036038101906104ff9190612d65565b61133a565b6040516105179796959493929190613853565b60405180910390f35b61053a60048036038101906105359190612abf565b61137c565b6040516105479190613440565b60405180910390f35b61056a60048036038101906105659190612a92565b611410565b005b61058660048036038101906105819190612d65565b611508565b6040516105959392919061381c565b60405180910390f35b6105a6611532565b6040516105b391906137a8565b60405180910390f35b60007f80ac58cd000000000000000000000000000000000000000000000000000000007bffffffffffffffffffffffffffffffffffffffffffffffffffffffff1916827bffffffffffffffffffffffffffffffffffffffffffffffffffffffff1916148061068757507f5b5e139f000000000000000000000000000000000000000000000000000000007bffffffffffffffffffffffffffffffffffffffffffffffffffffffff1916827bffffffffffffffffffffffffffffffffffffffffffffffffffffffff1916145b8061069757506106968261153f565b5b9050919050565b6060600080546106ad90613b55565b80601f01602080910402602001604051908101604052809291908181526020018280546106d990613b55565b80156107265780601f106106fb57610100808354040283529160200191610726565b820191906000526020600020905b81548152906001019060200180831161070957829003601f168201915b5050505050905090565b600061073b826115a9565b61077a576040517f08c379a0000000000000000000000000000000000000000000000000000000008152600401610771906136c8565b60405180910390fd5b6004600083815260200190815260200160002060009054906101000a900473ffffffffffffffffffffffffffffffffffffffff169050919050565b60006107c082610b23565b90508073ffffffffffffffffffffffffffffffffffffffff168373ffffffffffffffffffffffffffffffffffffffff161415610831576040517f08c379a000000000000000000000000000000000000000000000000000000000815260040161082890613768565b60405180910390fd5b8073ffffffffffffffffffffffffffffffffffffffff16610850611615565b73ffffffffffffffffffffffffffffffffffffffff16148061087f575061087e81610879611615565b61137c565b5b6108be576040517f08c379a00000000000000000000000000000000000000000000000000000000081526004016108b590613608565b60405180910390fd5b6108c8838361161d565b505050565b6108de6108d8611615565b826116d6565b61091d576040517f08c379a000000000000000000000000000000000000000000000000000000000815260040161091490613788565b60405180910390fd5b6109288383836117b4565b505050565b600e60009054906101000a900473ffffffffffffffffffffffffffffffffffffffff1681565b600d5481565b61097483838360405180602001604052806000815250611186565b505050565b6000600c547f000000000000000000000000000000000000000000000000000000000000000073ffffffffffffffffffffffffffffffffffffffff166370a08231306040518263ffffffff1660e01b81526004016109d79190613379565b60206040518083038186803b1580156109ef57600080fd5b505afa158015610a03573d6000803e3d6000fd5b505050506040513d601f19601f82011682018060405250810190610a279190612d92565b1015610a68576040517f08c379a0000000000000000000000000000000000000000000000000000000008152600401610a5f906135c8565b60405180910390fd5b6000610a78600b54600c54611a10565b905082601360008381526020019081526020016000209080519060200190610aa1929190612867565b50336014600083815260200190815260200160002060006101000a81548173ffffffffffffffffffffffffffffffffffffffff021916908373ffffffffffffffffffffffffffffffffffffffff16021790555080915050919050565b600f60009054906101000a900473ffffffffffffffffffffffffffffffffffffffff1681565b6000806002600084815260200190815260200160002060009054906101000a900473ffffffffffffffffffffffffffffffffffffffff169050600073ffffffffffffffffffffffffffffffffffffffff168173ffffffffffffffffffffffffffffffffffffffff161415610bcc576040517f08c379a0000000000000000000000000000000000000000000000000000000008152600401610bc390613648565b60405180910390fd5b80915050919050565b60108181548110610be557600080fd5b9060005260206000209060020201600091509050806000015490806001018054610c0e90613b55565b80601f0160208091040260200160405190810160405280929190818152602001828054610c3a90613b55565b8015610c875780601f10610c5c57610100808354040283529160200191610c87565b820191906000526020600020905b815481529060010190602001808311610c6a57829003601f168201915b5050505050905082565b60008073ffffffffffffffffffffffffffffffffffffffff168273ffffffffffffffffffffffffffffffffffffffff161415610d02576040517f08c379a0000000000000000000000000000000000000000000000000000000008152600401610cf990613628565b60405180910390fd5b600360008373ffffffffffffffffffffffffffffffffffffffff1673ffffffffffffffffffffffffffffffffffffffff168152602001908152602001600020549050919050565b610d51611615565b73ffffffffffffffffffffffffffffffffffffffff16610d6f610ead565b73ffffffffffffffffffffffffffffffffffffffff1614610dc5576040517f08c379a0000000000000000000000000000000000000000000000000000000008152600401610dbc906136e8565b60405180910390fd5b610dcf6000611b72565b565b6000610ddd6009611c38565b905090565b610dec8282611c46565b5050565b60608167ffffffffffffffff811115610e0c57610e0b613d02565b5b604051908082528060200260200182016040528015610e3a5781602001602082028036833780820191505090505b50905060005b82811015610ea6578381604051602001610e5b9291906137f3565b6040516020818303038152906040528051906020012060001c828281518110610e8757610e86613cd3565b5b6020026020010181815250508080610e9e90613bb8565b915050610e40565b5092915050565b6000600860009054906101000a900473ffffffffffffffffffffffffffffffffffffffff16905090565b7f000000000000000000000000000000000000000000000000000000000000000073ffffffffffffffffffffffffffffffffffffffff163373ffffffffffffffffffffffffffffffffffffffff1614610f65576040517f08c379a0000000000000000000000000000000000000000000000000000000008152600401610f5c90613748565b60405180910390fd5b610f6f8282611cba565b5050565b606060018054610f8290613b55565b80601f0160208091040260200160405190810160405280929190818152602001828054610fae90613b55565b8015610ffb5780601f10610fd057610100808354040283529160200191610ffb565b820191906000526020600020905b815481529060010190602001808311610fde57829003601f168201915b5050505050905090565b61100d611615565b73ffffffffffffffffffffffffffffffffffffffff168273ffffffffffffffffffffffffffffffffffffffff16141561107b576040517f08c379a0000000000000000000000000000000000000000000000000000000008152600401611072906135a8565b60405180910390fd5b8060056000611088611615565b73ffffffffffffffffffffffffffffffffffffffff1673ffffffffffffffffffffffffffffffffffffffff16815260200190815260200160002060008473ffffffffffffffffffffffffffffffffffffffff1673ffffffffffffffffffffffffffffffffffffffff16815260200190815260200160002060006101000a81548160ff0219169083151502179055508173ffffffffffffffffffffffffffffffffffffffff16611135611615565b73ffffffffffffffffffffffffffffffffffffffff167f17307eab39ab6107e8899845ad3d59bd9653f200f220920489ca2b5937696c318360405161117a9190613440565b60405180910390a35050565b611197611191611615565b836116d6565b6111d6576040517f08c379a00000000000000000000000000000000000000000000000000000000081526004016111cd90613788565b60405180910390fd5b6111e284848484612171565b50505050565b60606111f3826115a9565b611232576040517f08c379a0000000000000000000000000000000000000000000000000000000008152600401611229906136a8565b60405180910390fd5b600060066000848152602001908152602001600020805461125290613b55565b80601f016020809104026020016040519081016040528092919081815260200182805461127e90613b55565b80156112cb5780601f106112a0576101008083540402835291602001916112cb565b820191906000526020600020905b8154815290600101906020018083116112ae57829003601f168201915b5050505050905060006112dc6121cd565b90506000815114156112f2578192505050611335565b60008251111561132757808260405160200161130f929190613355565b60405160208183030381529060405292505050611335565b611330846121e4565b925050505b919050565b60116020528060005260406000206000915090508060000154908060010154908060020154908060030154908060040154908060050154908060060154905087565b6000600560008473ffffffffffffffffffffffffffffffffffffffff1673ffffffffffffffffffffffffffffffffffffffff16815260200190815260200160002060008373ffffffffffffffffffffffffffffffffffffffff1673ffffffffffffffffffffffffffffffffffffffff16815260200190815260200160002060009054906101000a900460ff16905092915050565b611418611615565b73ffffffffffffffffffffffffffffffffffffffff16611436610ead565b73ffffffffffffffffffffffffffffffffffffffff161461148c576040517f08c379a0000000000000000000000000000000000000000000000000000000008152600401611483906136e8565b60405180910390fd5b600073ffffffffffffffffffffffffffffffffffffffff168173ffffffffffffffffffffffffffffffffffffffff1614156114fc576040517f08c379a00000000000000000000000000000000000000000000000000000000081526004016114f390613548565b60405180910390fd5b61150581611b72565b50565b60126020528060005260406000206000915090508060000154908060010154908060020154905083565b6000601080549050905090565b60007f01ffc9a7000000000000000000000000000000000000000000000000000000007bffffffffffffffffffffffffffffffffffffffffffffffffffffffff1916827bffffffffffffffffffffffffffffffffffffffffffffffffffffffff1916149050919050565b60008073ffffffffffffffffffffffffffffffffffffffff166002600084815260200190815260200160002060009054906101000a900473ffffffffffffffffffffffffffffffffffffffff1673ffffffffffffffffffffffffffffffffffffffff1614159050919050565b600033905090565b816004600083815260200190815260200160002060006101000a81548173ffffffffffffffffffffffffffffffffffffffff021916908373ffffffffffffffffffffffffffffffffffffffff160217905550808273ffffffffffffffffffffffffffffffffffffffff1661169083610b23565b73ffffffffffffffffffffffffffffffffffffffff167f8c5be1e5ebec7d5bd14f71427d1e84f3dd0314c0f7b2291e5b200ac8c7c3b92560405160405180910390a45050565b60006116e1826115a9565b611720576040517f08c379a0000000000000000000000000000000000000000000000000000000008152600401611717906135e8565b60405180910390fd5b600061172b83610b23565b90508073ffffffffffffffffffffffffffffffffffffffff168473ffffffffffffffffffffffffffffffffffffffff16148061179a57508373ffffffffffffffffffffffffffffffffffffffff1661178284610730565b73ffffffffffffffffffffffffffffffffffffffff16145b806117ab57506117aa818561137c565b5b91505092915050565b8273ffffffffffffffffffffffffffffffffffffffff166117d482610b23565b73ffffffffffffffffffffffffffffffffffffffff161461182a576040517f08c379a000000000000000000000000000000000000000000000000000000000815260040161182190613708565b60405180910390fd5b600073ffffffffffffffffffffffffffffffffffffffff168273ffffffffffffffffffffffffffffffffffffffff16141561189a576040517f08c379a000000000000000000000000000000000000000000000000000000000815260040161189190613588565b60405180910390fd5b6118a583838361228b565b6118b060008261161d565b6001600360008573ffffffffffffffffffffffffffffffffffffffff1673ffffffffffffffffffffffffffffffffffffffff16815260200190815260200160002060008282546119009190613a61565b925050819055506001600360008473ffffffffffffffffffffffffffffffffffffffff1673ffffffffffffffffffffffffffffffffffffffff168152602001908152602001600020600082825461195791906139da565b92505081905550816002600083815260200190815260200160002060006101000a81548173ffffffffffffffffffffffffffffffffffffffff021916908373ffffffffffffffffffffffffffffffffffffffff160217905550808273ffffffffffffffffffffffffffffffffffffffff168473ffffffffffffffffffffffffffffffffffffffff167fddf252ad1be2c89b69c2b068fc378daa952ba7f163c4a11628f55a4df523b3ef60405160405180910390a4505050565b60007f000000000000000000000000000000000000000000000000000000000000000073ffffffffffffffffffffffffffffffffffffffff16634000aea07f000000000000000000000000000000000000000000000000000000000000000084866000604051602001611a84929190613476565b6040516020818303038152906040526040518463ffffffff1660e01b8152600401611ab1939291906133e0565b602060405180830381600087803b158015611acb57600080fd5b505af1158015611adf573d6000803e3d6000fd5b505050506040513d601f19601f82011682018060405250810190611b039190612c55565b506000611b26846000306007600089815260200190815260200160002054612290565b905060016007600086815260200190815260200160002054611b4891906139da565b6007600086815260200190815260200160002081905550611b6984826122cc565b91505092915050565b6000600860009054906101000a900473ffffffffffffffffffffffffffffffffffffffff16905081600860006101000a81548173ffffffffffffffffffffffffffffffffffffffff021916908373ffffffffffffffffffffffffffffffffffffffff1602179055508173ffffffffffffffffffffffffffffffffffffffff168173ffffffffffffffffffffffffffffffffffffffff167f8be0079c531659141344cd1fd0a4f28419497f9722a3daafe3b4186f6b6457e060405160405180910390a35050565b600081600001549050919050565b611c4f826115a9565b611c8e576040517f08c379a0000000000000000000000000000000000000000000000000000000008152600401611c8590613668565b60405180910390fd5b80600660008481526020019081526020016000209080519060200190611cb5929190612867565b505050565b80600d819055506000611cce826007610df0565b9050611cda60096122ff565b6000611ce66009611c38565b90506000605a83600081518110611d0057611cff613cd3565b5b6020026020010151611d129190613c15565b90506000605084600181518110611d2c57611d2b613cd3565b5b6020026020010151611d3e9190613c15565b90506000604685600281518110611d5857611d57613cd3565b5b6020026020010151611d6a9190613c15565b90506000605a86600381518110611d8457611d83613cd3565b5b6020026020010151611d969190613c15565b90506000605087600481518110611db057611daf613cd3565b5b6020026020010151611dc29190613c15565b90506000604688600581518110611ddc57611ddb613cd3565b5b6020026020010151611dee9190613c15565b90506000605a89600681518110611e0857611e07613cd3565b5b6020026020010151611e1a9190613c15565b90506040518060e0016040528088815260200187815260200186815260200185815260200184815260200183815260200182815250601160008a8152602001908152602001600020600082015181600001556020820151816001015560408201518160020155606082015181600301556080820151816004015560a0820151816005015560c082015181600601559050506040518060600160405280600160458c600081518110611ece57611ecd613cd3565b5b6020026020010151611ee09190613c15565b611eea91906139da565b8152602001600160458c600181518110611f0757611f06613cd3565b5b6020026020010151611f199190613c15565b611f2391906139da565b8152602001600160458c600281518110611f4057611f3f613cd3565b5b6020026020010151611f529190613c15565b611f5c91906139da565b815250601260008a8152602001908152602001600020600082015181600001556020820151816001015560408201518160020155905050601060405180604001604052808a8152602001601360008f81526020019081526020016000208054611fc490613b55565b80601f0160208091040260200160405190810160405280929190818152602001828054611ff090613b55565b801561203d5780601f106120125761010080835404028352916020019161203d565b820191906000526020600020905b81548152906001019060200180831161202057829003601f168201915b50505050508152509080600181540180825580915050600190039060005260206000209060020201600090919091909150600082015181600001556020820151816001019080519060200190612094929190612867565b5050506120d4601460008d815260200190815260200160002060009054906101000a900473ffffffffffffffffffffffffffffffffffffffff1689612315565b6120ed8860405180602001604052806000815250611c46565b61211a600a60009054906101000a900473ffffffffffffffffffffffffffffffffffffffff166001611005565b877f68158adde4aa7824065f4f60a4884be04e88b88e19a071ecc6b96eb90ffa66d9601360008e815260200190815260200160002060405161215c9190613506565b60405180910390a25050505050505050505050565b61217c8484846117b4565b61218884848484612333565b6121c7576040517f08c379a00000000000000000000000000000000000000000000000000000000081526004016121be90613528565b60405180910390fd5b50505050565b606060405180602001604052806000815250905090565b60606121ef826115a9565b61222e576040517f08c379a000000000000000000000000000000000000000000000000000000000815260040161222590613728565b60405180910390fd5b60006122386121cd565b905060008151116122585760405180602001604052806000815250612283565b80612262846124ca565b604051602001612273929190613355565b6040516020818303038152906040525b915050919050565b505050565b6000848484846040516020016122a9949392919061349f565b6040516020818303038152906040528051906020012060001c9050949350505050565b600082826040516020016122e1929190613329565b60405160208183030381529060405280519060200120905092915050565b6001816000016000828254019250508190555050565b61232f82826040518060200160405280600081525061262b565b5050565b60006123548473ffffffffffffffffffffffffffffffffffffffff16612686565b156124bd578373ffffffffffffffffffffffffffffffffffffffff1663150b7a0261237d611615565b8786866040518563ffffffff1660e01b815260040161239f9493929190613394565b602060405180830381600087803b1580156123b957600080fd5b505af19250505080156123ea57506040513d601f19601f820116820180604052508101906123e79190612cef565b60015b61246d573d806000811461241a576040519150601f19603f3d011682016040523d82523d6000602084013e61241f565b606091505b50600081511415612465576040517f08c379a000000000000000000000000000000000000000000000000000000000815260040161245c90613528565b60405180910390fd5b805181602001fd5b63150b7a0260e01b7bffffffffffffffffffffffffffffffffffffffffffffffffffffffff1916817bffffffffffffffffffffffffffffffffffffffffffffffffffffffff1916149150506124c2565b600190505b949350505050565b60606000821415612512576040518060400160405280600181526020017f30000000000000000000000000000000000000000000000000000000000000008152509050612626565b600082905060005b6000821461254457808061252d90613bb8565b915050600a8261253d9190613a30565b915061251a565b60008167ffffffffffffffff8111156125605761255f613d02565b5b6040519080825280601f01601f1916602001820160405280156125925781602001600182028036833780820191505090505b5090505b6000851461261f576001826125ab9190613a61565b9150600a856125ba9190613c15565b60306125c691906139da565b60f81b8183815181106125dc576125db613cd3565b5b60200101907effffffffffffffffffffffffffffffffffffffffffffffffffffffffffffff1916908160001a905350600a856126189190613a30565b9450612596565b8093505050505b919050565b6126358383612699565b6126426000848484612333565b612681576040517f08c379a000000000000000000000000000000000000000000000000000000000815260040161267890613528565b60405180910390fd5b505050565b600080823b905060008111915050919050565b600073ffffffffffffffffffffffffffffffffffffffff168273ffffffffffffffffffffffffffffffffffffffff161415612709576040517f08c379a000000000000000000000000000000000000000000000000000000000815260040161270090613688565b60405180910390fd5b612712816115a9565b15612752576040517f08c379a000000000000000000000000000000000000000000000000000000000815260040161274990613568565b60405180910390fd5b61275e6000838361228b565b6001600360008473ffffffffffffffffffffffffffffffffffffffff1673ffffffffffffffffffffffffffffffffffffffff16815260200190815260200160002060008282546127ae91906139da565b92505081905550816002600083815260200190815260200160002060006101000a81548173ffffffffffffffffffffffffffffffffffffffff021916908373ffffffffffffffffffffffffffffffffffffffff160217905550808273ffffffffffffffffffffffffffffffffffffffff16600073ffffffffffffffffffffffffffffffffffffffff167fddf252ad1be2c89b69c2b068fc378daa952ba7f163c4a11628f55a4df523b3ef60405160405180910390a45050565b82805461287390613b55565b90600052602060002090601f01602090048101928261289557600085556128dc565b82601f106128ae57805160ff19168380011785556128dc565b828001600101855582156128dc579182015b828111156128db5782518255916020019190600101906128c0565b5b5090506128e991906128ed565b5090565b5b808211156129065760008160009055506001016128ee565b5090565b600061291d612918846138e7565b6138c2565b90508281526020810184848401111561293957612938613d36565b5b612944848285613b13565b509392505050565b600061295f61295a84613918565b6138c2565b90508281526020810184848401111561297b5761297a613d36565b5b612986848285613b13565b509392505050565b60008135905061299d816142c4565b92915050565b6000813590506129b2816142db565b92915050565b6000815190506129c7816142db565b92915050565b6000813590506129dc816142f2565b92915050565b6000813590506129f181614309565b92915050565b600081519050612a0681614309565b92915050565b600082601f830112612a2157612a20613d31565b5b8135612a3184826020860161290a565b91505092915050565b600082601f830112612a4f57612a4e613d31565b5b8135612a5f84826020860161294c565b91505092915050565b600081359050612a7781614320565b92915050565b600081519050612a8c81614320565b92915050565b600060208284031215612aa857612aa7613d40565b5b6000612ab68482850161298e565b91505092915050565b60008060408385031215612ad657612ad5613d40565b5b6000612ae48582860161298e565b9250506020612af58582860161298e565b9150509250929050565b600080600060608486031215612b1857612b17613d40565b5b6000612b268682870161298e565b9350506020612b378682870161298e565b9250506040612b4886828701612a68565b9150509250925092565b60008060008060808587031215612b6c57612b6b613d40565b5b6000612b7a8782880161298e565b9450506020612b8b8782880161298e565b9350506040612b9c87828801612a68565b925050606085013567ffffffffffffffff811115612bbd57612bbc613d3b565b5b612bc987828801612a0c565b91505092959194509250565b60008060408385031215612bec57612beb613d40565b5b6000612bfa8582860161298e565b9250506020612c0b858286016129a3565b9150509250929050565b60008060408385031215612c2c57612c2b613d40565b5b6000612c3a8582860161298e565b9250506020612c4b85828601612a68565b9150509250929050565b600060208284031215612c6b57612c6a613d40565b5b6000612c79848285016129b8565b91505092915050565b60008060408385031215612c9957612c98613d40565b5b6000612ca7858286016129cd565b9250506020612cb885828601612a68565b9150509250929050565b600060208284031215612cd857612cd7613d40565b5b6000612ce6848285016129e2565b91505092915050565b600060208284031215612d0557612d04613d40565b5b6000612d13848285016129f7565b91505092915050565b600060208284031215612d3257612d31613d40565b5b600082013567ffffffffffffffff811115612d5057612d4f613d3b565b5b612d5c84828501612a3a565b91505092915050565b600060208284031215612d7b57612d7a613d40565b5b6000612d8984828501612a68565b91505092915050565b600060208284031215612da857612da7613d40565b5b6000612db684828501612a7d565b91505092915050565b60008060408385031215612dd657612dd5613d40565b5b6000612de485828601612a68565b925050602083013567ffffffffffffffff811115612e0557612e04613d3b565b5b612e1185828601612a3a565b9150509250929050565b60008060408385031215612e3257612e31613d40565b5b6000612e4085828601612a68565b9250506020612e5185828601612a68565b9150509250929050565b6000612e6783836132f4565b60208301905092915050565b612e7c81613a95565b82525050565b6000612e8d8261396e565b612e97818561399c565b9350612ea283613949565b8060005b83811015612ed3578151612eba8882612e5b565b9750612ec58361398f565b925050600181019050612ea6565b5085935050505092915050565b612ee981613aa7565b82525050565b612ef881613ab3565b82525050565b612f0f612f0a82613ab3565b613c01565b82525050565b6000612f2082613979565b612f2a81856139ad565b9350612f3a818560208601613b22565b612f4381613d45565b840191505092915050565b6000612f5982613984565b612f6381856139be565b9350612f73818560208601613b22565b612f7c81613d45565b840191505092915050565b6000612f9282613984565b612f9c81856139cf565b9350612fac818560208601613b22565b80840191505092915050565b60008154612fc581613b55565b612fcf81866139be565b94506001821660008114612fea5760018114612ffc5761302f565b60ff198316865260208601935061302f565b61300585613959565b60005b8381101561302757815481890152600182019150602081019050613008565b808801955050505b50505092915050565b60006130456032836139be565b915061305082613d56565b604082019050919050565b60006130686026836139be565b915061307382613da5565b604082019050919050565b600061308b601c836139be565b915061309682613df4565b602082019050919050565b60006130ae6024836139be565b91506130b982613e1d565b604082019050919050565b60006130d16019836139be565b91506130dc82613e6c565b602082019050919050565b60006130f4602b836139be565b91506130ff82613e95565b604082019050919050565b6000613117602c836139be565b915061312282613ee4565b604082019050919050565b600061313a6038836139be565b915061314582613f33565b604082019050919050565b600061315d602a836139be565b915061316882613f82565b604082019050919050565b60006131806029836139be565b915061318b82613fd1565b604082019050919050565b60006131a3602e836139be565b91506131ae82614020565b604082019050919050565b60006131c66020836139be565b91506131d18261406f565b602082019050919050565b60006131e96031836139be565b91506131f482614098565b604082019050919050565b600061320c602c836139be565b9150613217826140e7565b604082019050919050565b600061322f6020836139be565b915061323a82614136565b602082019050919050565b60006132526029836139be565b915061325d8261415f565b604082019050919050565b6000613275602f836139be565b9150613280826141ae565b604082019050919050565b6000613298601f836139be565b91506132a3826141fd565b602082019050919050565b60006132bb6021836139be565b91506132c682614226565b604082019050919050565b60006132de6031836139be565b91506132e982614275565b604082019050919050565b6132fd81613b09565b82525050565b61330c81613b09565b82525050565b61332361331e82613b09565b613c0b565b82525050565b60006133358285612efe565b6020820191506133458284613312565b6020820191508190509392505050565b60006133618285612f87565b915061336d8284612f87565b91508190509392505050565b600060208201905061338e6000830184612e73565b92915050565b60006080820190506133a96000830187612e73565b6133b66020830186612e73565b6133c36040830185613303565b81810360608301526133d58184612f15565b905095945050505050565b60006060820190506133f56000830186612e73565b6134026020830185613303565b81810360408301526134148184612f15565b9050949350505050565b600060208201905081810360008301526134388184612e82565b905092915050565b60006020820190506134556000830184612ee0565b92915050565b60006020820190506134706000830184612eef565b92915050565b600060408201905061348b6000830185612eef565b6134986020830184613303565b9392505050565b60006080820190506134b46000830187612eef565b6134c16020830186613303565b6134ce6040830185612e73565b6134db6060830184613303565b95945050505050565b600060208201905081810360008301526134fe8184612f4e565b905092915050565b600060208201905081810360008301526135208184612fb8565b905092915050565b6000602082019050818103600083015261354181613038565b9050919050565b600060208201905081810360008301526135618161305b565b9050919050565b600060208201905081810360008301526135818161307e565b9050919050565b600060208201905081810360008301526135a1816130a1565b9050919050565b600060208201905081810360008301526135c1816130c4565b9050919050565b600060208201905081810360008301526135e1816130e7565b9050919050565b600060208201905081810360008301526136018161310a565b9050919050565b600060208201905081810360008301526136218161312d565b9050919050565b6000602082019050818103600083015261364181613150565b9050919050565b6000602082019050818103600083015261366181613173565b9050919050565b6000602082019050818103600083015261368181613196565b9050919050565b600060208201905081810360008301526136a1816131b9565b9050919050565b600060208201905081810360008301526136c1816131dc565b9050919050565b600060208201905081810360008301526136e1816131ff565b9050919050565b6000602082019050818103600083015261370181613222565b9050919050565b6000602082019050818103600083015261372181613245565b9050919050565b6000602082019050818103600083015261374181613268565b9050919050565b600060208201905081810360008301526137618161328b565b9050919050565b60006020820190508181036000830152613781816132ae565b9050919050565b600060208201905081810360008301526137a1816132d1565b9050919050565b60006020820190506137bd6000830184613303565b92915050565b60006040820190506137d86000830185613303565b81810360208301526137ea8184612f4e565b90509392505050565b60006040820190506138086000830185613303565b6138156020830184613303565b9392505050565b60006060820190506138316000830186613303565b61383e6020830185613303565b61384b6040830184613303565b949350505050565b600060e082019050613868600083018a613303565b6138756020830189613303565b6138826040830188613303565b61388f6060830187613303565b61389c6080830186613303565b6138a960a0830185613303565b6138b660c0830184613303565b98975050505050505050565b60006138cc6138dd565b90506138d88282613b87565b919050565b6000604051905090565b600067ffffffffffffffff82111561390257613901613d02565b5b61390b82613d45565b9050602081019050919050565b600067ffffffffffffffff82111561393357613932613d02565b5b61393c82613d45565b9050602081019050919050565b6000819050602082019050919050565b60008190508160005260206000209050919050565b600081519050919050565b600081519050919050565b600081519050919050565b6000602082019050919050565b600082825260208201905092915050565b600082825260208201905092915050565b600082825260208201905092915050565b600081905092915050565b60006139e582613b09565b91506139f083613b09565b9250827fffffffffffffffffffffffffffffffffffffffffffffffffffffffffffffffff03821115613a2557613a24613c46565b5b828201905092915050565b6000613a3b82613b09565b9150613a4683613b09565b925082613a5657613a55613c75565b5b828204905092915050565b6000613a6c82613b09565b9150613a7783613b09565b925082821015613a8a57613a89613c46565b5b828203905092915050565b6000613aa082613ae9565b9050919050565b60008115159050919050565b6000819050919050565b60007fffffffff0000000000000000000000000000000000000000000000000000000082169050919050565b600073ffffffffffffffffffffffffffffffffffffffff82169050919050565b6000819050919050565b82818337600083830152505050565b60005b83811015613b40578082015181840152602081019050613b25565b83811115613b4f576000848401525b50505050565b60006002820490506001821680613b6d57607f821691505b60208210811415613b8157613b80613ca4565b5b50919050565b613b9082613d45565b810181811067ffffffffffffffff82111715613baf57613bae613d02565b5b80604052505050565b6000613bc382613b09565b91507fffffffffffffffffffffffffffffffffffffffffffffffffffffffffffffffff821415613bf657613bf5613c46565b5b600182019050919050565b6000819050919050565b6000819050919050565b6000613c2082613b09565b9150613c2b83613b09565b925082613c3b57613c3a613c75565b5b828206905092915050565b7f4e487b7100000000000000000000000000000000000000000000000000000000600052601160045260246000fd5b7f4e487b7100000000000000000000000000000000000000000000000000000000600052601260045260246000fd5b7f4e487b7100000000000000000000000000000000000000000000000000000000600052602260045260246000fd5b7f4e487b7100000000000000000000000000000000000000000000000000000000600052603260045260246000fd5b7f4e487b7100000000000000000000000000000000000000000000000000000000600052604160045260246000fd5b600080fd5b600080fd5b600080fd5b600080fd5b6000601f19601f8301169050919050565b7f4552433732313a207472616e7366657220746f206e6f6e20455243373231526560008201527f63656976657220696d706c656d656e7465720000000000000000000000000000602082015250565b7f4f776e61626c653a206e6577206f776e657220697320746865207a65726f206160008201527f6464726573730000000000000000000000000000000000000000000000000000602082015250565b7f4552433732313a20746f6b656e20616c7265616479206d696e74656400000000600082015250565b7f4552433732313a207472616e7366657220746f20746865207a65726f2061646460008201527f7265737300000000000000000000000000000000000000000000000000000000602082015250565b7f4552433732313a20617070726f766520746f2063616c6c657200000000000000600082015250565b7f4e6f7420656e6f756768204c494e4b202d2066696c6c20636f6e74726163742060008201527f7769746820666175636574000000000000000000000000000000000000000000602082015250565b7f4552433732313a206f70657261746f7220717565727920666f72206e6f6e657860008201527f697374656e7420746f6b656e0000000000000000000000000000000000000000602082015250565b7f4552433732313a20617070726f76652063616c6c6572206973206e6f74206f7760008201527f6e6572206e6f7220617070726f76656420666f7220616c6c0000000000000000602082015250565b7f4552433732313a2062616c616e636520717565727920666f7220746865207a6560008201527f726f206164647265737300000000000000000000000000000000000000000000602082015250565b7f4552433732313a206f776e657220717565727920666f72206e6f6e657869737460008201527f656e7420746f6b656e0000000000000000000000000000000000000000000000602082015250565b7f45524337323155524953746f726167653a2055524920736574206f66206e6f6e60008201527f6578697374656e7420746f6b656e000000000000000000000000000000000000602082015250565b7f4552433732313a206d696e7420746f20746865207a65726f2061646472657373600082015250565b7f45524337323155524953746f726167653a2055524920717565727920666f722060008201527f6e6f6e6578697374656e7420746f6b656e000000000000000000000000000000602082015250565b7f4552433732313a20617070726f76656420717565727920666f72206e6f6e657860008201527f697374656e7420746f6b656e0000000000000000000000000000000000000000602082015250565b7f4f776e61626c653a2063616c6c6572206973206e6f7420746865206f776e6572600082015250565b7f4552433732313a207472616e73666572206f6620746f6b656e2074686174206960008201527f73206e6f74206f776e0000000000000000000000000000000000000000000000602082015250565b7f4552433732314d657461646174613a2055524920717565727920666f72206e6f60008201527f6e6578697374656e7420746f6b656e0000000000000000000000000000000000602082015250565b7f4f6e6c7920565246436f6f7264696e61746f722063616e2066756c66696c6c00600082015250565b7f4552433732313a20617070726f76616c20746f2063757272656e74206f776e6560008201527f7200000000000000000000000000000000000000000000000000000000000000602082015250565b7f4552433732313a207472616e736665722063616c6c6572206973206e6f74206f60008201527f776e6572206e6f7220617070726f766564000000000000000000000000000000602082015250565b6142cd81613a95565b81146142d857600080fd5b50565b6142e481613aa7565b81146142ef57600080fd5b50565b6142fb81613ab3565b811461430657600080fd5b50565b61431281613abd565b811461431d57600080fd5b50565b61432981613b09565b811461433457600080fd5b5056fea26469706673582212204d81e4ed848b688f415385fc6b1c37b55efcb17e04d22e22b96a84f47a08d58664736f6c63430008070033",
  "devdoc": {
    "kind": "dev",
    "methods": {
      "approve(address,uint256)": {
        "details": "See {IERC721-approve}."
      },
      "balanceOf(address)": {
        "details": "See {IERC721-balanceOf}."
      },
      "getApproved(uint256)": {
        "details": "See {IERC721-getApproved}."
      },
      "isApprovedForAll(address,address)": {
        "details": "See {IERC721-isApprovedForAll}."
      },
      "name()": {
        "details": "See {IERC721Metadata-name}."
      },
      "owner()": {
        "details": "Returns the address of the current owner."
      },
      "ownerOf(uint256)": {
        "details": "See {IERC721-ownerOf}."
      },
      "renounceOwnership()": {
        "details": "Leaves the contract without owner. It will not be possible to call `onlyOwner` functions anymore. Can only be called by the current owner. NOTE: Renouncing ownership will leave the contract without an owner, thereby removing any functionality that is only available to the owner."
      },
      "safeTransferFrom(address,address,uint256)": {
        "details": "See {IERC721-safeTransferFrom}."
      },
      "safeTransferFrom(address,address,uint256,bytes)": {
        "details": "See {IERC721-safeTransferFrom}."
      },
      "setApprovalForAll(address,bool)": {
        "details": "See {IERC721-setApprovalForAll}."
      },
      "supportsInterface(bytes4)": {
        "details": "See {IERC165-supportsInterface}."
      },
      "symbol()": {
        "details": "See {IERC721Metadata-symbol}."
      },
      "tokenURI(uint256)": {
        "details": "See {IERC721Metadata-tokenURI}."
      },
      "transferFrom(address,address,uint256)": {
        "details": "See {IERC721-transferFrom}."
      },
      "transferOwnership(address)": {
        "details": "Transfers ownership of the contract to a new account (`newOwner`). Can only be called by the current owner."
      }
    },
    "version": 1
  },
  "userdoc": {
    "kind": "user",
    "methods": {
      "constructor": {
        "notice": "Constructor inherits VRFConsumerBase Network: Kovan Chainlink VRF Coordinator address: 0xdD3782915140c8f3b190B5D67eAc6dc5760C46E9 LINK token address:                0xa36085F69e2889c224210F603D836748e7dC0088 Key Hash: 0x6c3699283bda56ad74f6b855546325b68d482e983852a7a82979cc4807b641f4"
      }
    },
    "version": 1
  },
  "storageLayout": {
    "storage": [
      {
        "astId": 435,
        "contract": "contracts/RandomCryptoMarc.sol:RandomCryptoMarc",
        "label": "_name",
        "offset": 0,
        "slot": "0",
        "type": "t_string_storage"
      },
      {
        "astId": 437,
        "contract": "contracts/RandomCryptoMarc.sol:RandomCryptoMarc",
        "label": "_symbol",
        "offset": 0,
        "slot": "1",
        "type": "t_string_storage"
      },
      {
        "astId": 441,
        "contract": "contracts/RandomCryptoMarc.sol:RandomCryptoMarc",
        "label": "_owners",
        "offset": 0,
        "slot": "2",
        "type": "t_mapping(t_uint256,t_address)"
      },
      {
        "astId": 445,
        "contract": "contracts/RandomCryptoMarc.sol:RandomCryptoMarc",
        "label": "_balances",
        "offset": 0,
        "slot": "3",
        "type": "t_mapping(t_address,t_uint256)"
      },
      {
        "astId": 449,
        "contract": "contracts/RandomCryptoMarc.sol:RandomCryptoMarc",
        "label": "_tokenApprovals",
        "offset": 0,
        "slot": "4",
        "type": "t_mapping(t_uint256,t_address)"
      },
      {
        "astId": 455,
        "contract": "contracts/RandomCryptoMarc.sol:RandomCryptoMarc",
        "label": "_operatorApprovals",
        "offset": 0,
        "slot": "5",
        "type": "t_mapping(t_address,t_mapping(t_address,t_bool))"
      },
      {
        "astId": 1372,
        "contract": "contracts/RandomCryptoMarc.sol:RandomCryptoMarc",
        "label": "_tokenURIs",
        "offset": 0,
        "slot": "6",
        "type": "t_mapping(t_uint256,t_string_storage)"
      },
      {
        "astId": 79,
        "contract": "contracts/RandomCryptoMarc.sol:RandomCryptoMarc",
        "label": "nonces",
        "offset": 0,
        "slot": "7",
        "type": "t_mapping(t_bytes32,t_uint256)"
      },
      {
        "astId": 273,
        "contract": "contracts/RandomCryptoMarc.sol:RandomCryptoMarc",
        "label": "_owner",
        "offset": 0,
        "slot": "8",
        "type": "t_address"
      },
      {
        "astId": 2488,
        "contract": "contracts/RandomCryptoMarc.sol:RandomCryptoMarc",
        "label": "_tokenIds",
        "offset": 0,
        "slot": "9",
        "type": "t_struct(Counter)1839_storage"
      },
      {
        "astId": 2490,
        "contract": "contracts/RandomCryptoMarc.sol:RandomCryptoMarc",
        "label": "marketplaceAddress",
        "offset": 0,
        "slot": "10",
        "type": "t_address"
      },
      {
        "astId": 2492,
        "contract": "contracts/RandomCryptoMarc.sol:RandomCryptoMarc",
        "label": "keyHash",
        "offset": 0,
        "slot": "11",
        "type": "t_bytes32"
      },
      {
        "astId": 2494,
        "contract": "contracts/RandomCryptoMarc.sol:RandomCryptoMarc",
        "label": "fee",
        "offset": 0,
        "slot": "12",
        "type": "t_uint256"
      },
      {
        "astId": 2496,
        "contract": "contracts/RandomCryptoMarc.sol:RandomCryptoMarc",
        "label": "randomResult",
        "offset": 0,
        "slot": "13",
        "type": "t_uint256"
      },
      {
        "astId": 2498,
        "contract": "contracts/RandomCryptoMarc.sol:RandomCryptoMarc",
        "label": "VRFCoordinator",
        "offset": 0,
        "slot": "14",
        "type": "t_address"
      },
      {
        "astId": 2500,
        "contract": "contracts/RandomCryptoMarc.sol:RandomCryptoMarc",
        "label": "LinkToken",
        "offset": 0,
        "slot": "15",
        "type": "t_address"
      },
      {
        "astId": 2531,
        "contract": "contracts/RandomCryptoMarc.sol:RandomCryptoMarc",
        "label": "cryptomarcs",
        "offset": 0,
        "slot": "16",
        "type": "t_array(t_struct(CryptoMarc)2527_storage)dyn_storage"
      },
      {
        "astId": 2536,
        "contract": "contracts/RandomCryptoMarc.sol:RandomCryptoMarc",
        "label": "attributes",
        "offset": 0,
        "slot": "17",
        "type": "t_mapping(t_uint256,t_struct(Attributes)2515_storage)"
      },
      {
        "astId": 2541,
        "contract": "contracts/RandomCryptoMarc.sol:RandomCryptoMarc",
        "label": "competences",
        "offset": 0,
        "slot": "18",
        "type": "t_mapping(t_uint256,t_struct(Competences)2522_storage)"
      },
      {
        "astId": 2545,
        "contract": "contracts/RandomCryptoMarc.sol:RandomCryptoMarc",
        "label": "requestCToName",
        "offset": 0,
        "slot": "19",
        "type": "t_mapping(t_bytes32,t_string_storage)"
      },
      {
        "astId": 2549,
        "contract": "contracts/RandomCryptoMarc.sol:RandomCryptoMarc",
        "label": "requestToSender",
        "offset": 0,
        "slot": "20",
        "type": "t_mapping(t_bytes32,t_address)"
      },
      {
        "astId": 2553,
        "contract": "contracts/RandomCryptoMarc.sol:RandomCryptoMarc",
        "label": "requestToTokenId",
        "offset": 0,
        "slot": "21",
        "type": "t_mapping(t_bytes32,t_uint256)"
      }
    ],
    "types": {
      "t_address": {
        "encoding": "inplace",
        "label": "address",
        "numberOfBytes": "20"
      },
      "t_array(t_struct(CryptoMarc)2527_storage)dyn_storage": {
        "base": "t_struct(CryptoMarc)2527_storage",
        "encoding": "dynamic_array",
        "label": "struct RandomCryptoMarc.CryptoMarc[]",
        "numberOfBytes": "32"
      },
      "t_bool": {
        "encoding": "inplace",
        "label": "bool",
        "numberOfBytes": "1"
      },
      "t_bytes32": {
        "encoding": "inplace",
        "label": "bytes32",
        "numberOfBytes": "32"
      },
      "t_mapping(t_address,t_bool)": {
        "encoding": "mapping",
        "key": "t_address",
        "label": "mapping(address => bool)",
        "numberOfBytes": "32",
        "value": "t_bool"
      },
      "t_mapping(t_address,t_mapping(t_address,t_bool))": {
        "encoding": "mapping",
        "key": "t_address",
        "label": "mapping(address => mapping(address => bool))",
        "numberOfBytes": "32",
        "value": "t_mapping(t_address,t_bool)"
      },
      "t_mapping(t_address,t_uint256)": {
        "encoding": "mapping",
        "key": "t_address",
        "label": "mapping(address => uint256)",
        "numberOfBytes": "32",
        "value": "t_uint256"
      },
      "t_mapping(t_bytes32,t_address)": {
        "encoding": "mapping",
        "key": "t_bytes32",
        "label": "mapping(bytes32 => address)",
        "numberOfBytes": "32",
        "value": "t_address"
      },
      "t_mapping(t_bytes32,t_string_storage)": {
        "encoding": "mapping",
        "key": "t_bytes32",
        "label": "mapping(bytes32 => string)",
        "numberOfBytes": "32",
        "value": "t_string_storage"
      },
      "t_mapping(t_bytes32,t_uint256)": {
        "encoding": "mapping",
        "key": "t_bytes32",
        "label": "mapping(bytes32 => uint256)",
        "numberOfBytes": "32",
        "value": "t_uint256"
      },
      "t_mapping(t_uint256,t_address)": {
        "encoding": "mapping",
        "key": "t_uint256",
        "label": "mapping(uint256 => address)",
        "numberOfBytes": "32",
        "value": "t_address"
      },
      "t_mapping(t_uint256,t_string_storage)": {
        "encoding": "mapping",
        "key": "t_uint256",
        "label": "mapping(uint256 => string)",
        "numberOfBytes": "32",
        "value": "t_string_storage"
      },
      "t_mapping(t_uint256,t_struct(Attributes)2515_storage)": {
        "encoding": "mapping",
        "key": "t_uint256",
        "label": "mapping(uint256 => struct RandomCryptoMarc.Attributes)",
        "numberOfBytes": "32",
        "value": "t_struct(Attributes)2515_storage"
      },
      "t_mapping(t_uint256,t_struct(Competences)2522_storage)": {
        "encoding": "mapping",
        "key": "t_uint256",
        "label": "mapping(uint256 => struct RandomCryptoMarc.Competences)",
        "numberOfBytes": "32",
        "value": "t_struct(Competences)2522_storage"
      },
      "t_string_storage": {
        "encoding": "bytes",
        "label": "string",
        "numberOfBytes": "32"
      },
      "t_struct(Attributes)2515_storage": {
        "encoding": "inplace",
        "label": "struct RandomCryptoMarc.Attributes",
        "members": [
          {
            "astId": 2502,
            "contract": "contracts/RandomCryptoMarc.sol:RandomCryptoMarc",
            "label": "background",
            "offset": 0,
            "slot": "0",
            "type": "t_uint256"
          },
          {
            "astId": 2504,
            "contract": "contracts/RandomCryptoMarc.sol:RandomCryptoMarc",
            "label": "face",
            "offset": 0,
            "slot": "1",
            "type": "t_uint256"
          },
          {
            "astId": 2506,
            "contract": "contracts/RandomCryptoMarc.sol:RandomCryptoMarc",
            "label": "mouth",
            "offset": 0,
            "slot": "2",
            "type": "t_uint256"
          },
          {
            "astId": 2508,
            "contract": "contracts/RandomCryptoMarc.sol:RandomCryptoMarc",
            "label": "eyes",
            "offset": 0,
            "slot": "3",
            "type": "t_uint256"
          },
          {
            "astId": 2510,
            "contract": "contracts/RandomCryptoMarc.sol:RandomCryptoMarc",
            "label": "hair",
            "offset": 0,
            "slot": "4",
            "type": "t_uint256"
          },
          {
            "astId": 2512,
            "contract": "contracts/RandomCryptoMarc.sol:RandomCryptoMarc",
            "label": "glasses",
            "offset": 0,
            "slot": "5",
            "type": "t_uint256"
          },
          {
            "astId": 2514,
            "contract": "contracts/RandomCryptoMarc.sol:RandomCryptoMarc",
            "label": "hat",
            "offset": 0,
            "slot": "6",
            "type": "t_uint256"
          }
        ],
        "numberOfBytes": "224"
      },
      "t_struct(Competences)2522_storage": {
        "encoding": "inplace",
        "label": "struct RandomCryptoMarc.Competences",
        "members": [
          {
            "astId": 2517,
            "contract": "contracts/RandomCryptoMarc.sol:RandomCryptoMarc",
            "label": "competence1",
            "offset": 0,
            "slot": "0",
            "type": "t_uint256"
          },
          {
            "astId": 2519,
            "contract": "contracts/RandomCryptoMarc.sol:RandomCryptoMarc",
            "label": "competence2",
            "offset": 0,
            "slot": "1",
            "type": "t_uint256"
          },
          {
            "astId": 2521,
            "contract": "contracts/RandomCryptoMarc.sol:RandomCryptoMarc",
            "label": "competence3",
            "offset": 0,
            "slot": "2",
            "type": "t_uint256"
          }
        ],
        "numberOfBytes": "96"
      },
      "t_struct(Counter)1839_storage": {
        "encoding": "inplace",
        "label": "struct Counters.Counter",
        "members": [
          {
            "astId": 1838,
            "contract": "contracts/RandomCryptoMarc.sol:RandomCryptoMarc",
            "label": "_value",
            "offset": 0,
            "slot": "0",
            "type": "t_uint256"
          }
        ],
        "numberOfBytes": "32"
      },
      "t_struct(CryptoMarc)2527_storage": {
        "encoding": "inplace",
        "label": "struct RandomCryptoMarc.CryptoMarc",
        "members": [
          {
            "astId": 2524,
            "contract": "contracts/RandomCryptoMarc.sol:RandomCryptoMarc",
            "label": "id",
            "offset": 0,
            "slot": "0",
            "type": "t_uint256"
          },
          {
            "astId": 2526,
            "contract": "contracts/RandomCryptoMarc.sol:RandomCryptoMarc",
            "label": "name",
            "offset": 0,
            "slot": "1",
            "type": "t_string_storage"
          }
        ],
        "numberOfBytes": "64"
      },
      "t_uint256": {
        "encoding": "inplace",
        "label": "uint256",
        "numberOfBytes": "32"
      }
    }
  }
}